:1000000000200010430000004100000041000000FB
:1000100041000000410000004100000041000000DC
:1000200041000000410000004100000041000000CC
:1000300041000000410000004100000041000000BC
:10004000FEE70B480B490C4A091A05D013780370D8
:10005000013201300139F9DC08480949091A04D094
:100060005B40037001300139FBDC00F03BFEFEE732
:1000700000000010D005001020180000D00500106E
:10008000D4050010F01D00002DE9F34180460D4617
:10009000002421EAE1767600002000F083FD3A2872
:1000A000FAD14746A7EB08039D420DDC002000F083
:1000B00079FD34440A2804F1010401D0A542EBDAA9
:1000C000284602B0BDE8F081002000F06BFD8DF8FD
:1000D0000400002000F066FD10228DF805000021CC
:1000E00001A801F087F807F8010BDBE7F7B50E462A
:1000F000102201A90746304600F018FE01A800F0C2
:1001000097FF012820D13021002000F057FD9DF8F5
:10011000044000F03FFE20444378002003F0030336
:10012000022B08BF203CE1B200F048FD3A2100203C
:1001300000F044FD3D46EB1BB34217DB0D210020D0
:1001400000F03CFD03B0F0BD9DF8044000F022FE3D
:1001500020444378002003F00303022B08BF203C17
:10016000E1B200F02BFD9DF80540D2E7102201A975
:1001700015F8010B00F0DAFD01A800F059FF012885
:1001800013D13021002000F019FD9DF8044000F04B
:1001900001FE20444378002003F00303022B08BF34
:1001A000203CE1B200F00AFDC5E79DF8044000F0F4
:1001B000F1FD20444378002003F00303022B08BF25
:1001C000203CE1B200F0FAFC9DF80540DFE770B595
:1001D0001D4B4C7B0D7855401A5D554005708A7B50
:1001E0009C5C4A7854404470CA7B9E5C8A7872401A
:1001F00082700E7B9B5DCE787340C3700E79754024
:1002000005714E79744044718E7972408271CE7955
:100210007340C3710E7A754005724E7A7440447211
:100220008E7A72408272CE7A7340C3720E7B7540B2
:1002300005734D7B6C4044738C7B62408273CA7B38
:100240005340C37370BD00BFE0120000074B10B5F0
:1002500003EB011100230138CC5C10F8012F0133AE
:100260006240102B0270F7D110BD00BFDE060010F7
:100270000449431E0F3013F8012F8A5C83421A7021
:10028000F9D17047DE0500104179427A437B10B501
:10029000447842714473827A8478417043728179E0
:1002A000837B84728173C478C17982708371C27ACE
:1002B000C37BC471C172C273C37010BD2DE9F0411C
:1002C000204D031D143013F8042C13F802CC13F83E
:1002D000011CAF1813F8034C97F800618CEA010E6B
:1002E00086EA0E0605EB040E9EF80082043386EAC9
:1002F000080603F8086C9EF8006182EA010805EB25
:100300000C0E86EA08069EF80082624086EA08061D
:1003100003F8076C9EF800612944724091F800626E
:1003200084EA0C04724003F8062C97F8002291F836
:10033000001162404A4003F8052C9842C3D1BDE841
:10034000F08100BFE0120000002310B5934200DBF3
:1003500010BDCC5CC4540133F8E7F8B510220E464A
:1003600001460848FFF7F0FF0024064D05F110078D
:100370002919381916F8012F1034FFF728FFA02C7F
:10038000F6D1F8BDDE06001070B59DF814409DF85A
:10039000105061406240634000F110066C400578E7
:1003A00004304D4000F8045C10F8035C554000F840
:1003B000035C10F8025C5D4000F8025C10F8015C20
:1003C000654000F8015CB042E9D170BDF0B51A4A51
:1003D0001A4C137851789678D778194A86EA070C20
:1003E000D51895F8000180EA0C0002EB010C9CF88E
:1003F00000E280EA0E0020709CF8000183EA070EFC
:1004000002EB060C80EA0E009CF800E24B4080EA0A
:100410000E0060709CF800013A44434092F80002DC
:1004200071404340A37095F8003292F800214B4090
:100430005340E370F0BD00BFD9050010D405001093
:10044000E012000070B5084B08481C79084B094DB4
:100450001E7900235A5D86EA030101336240B3F539
:10046000807F4254F6D170BDD4050010DE05001027
:10047000D9050010E012000073B50E46104D435C24
:1004800008442B710F4C43782371FFF7DBFF287969
:10049000A3780190E078627800900B48217800EB17
:1004A0000610FFF771FF23782B7063786B70A378C9
:1004B000AB70E378EB7002B0BDE87040FFF786BF29
:1004C000D9050010D4050010DE0600102DE9F04318
:1004D000002587B0274C1022804602A89946FFF7D6
:1004E00033FFE078A378627821780195009002A824
:1004F000FFF74AFF294602A8FFF7A8FE01251E4E76
:1005000002A8FFF7B5FE02A8FFF7BEFE2079B37878
:100510000190F07872783178009002A8FFF734FFEC
:10052000EFB202A8FFF7CAFE39464846FFF7A4FF1C
:100530000135394602A8FFF789FE0A2DE0D102A84D
:10054000FFF796FE02A8FFF79FFE23790B48019361
:1005500000231A4619460093FFF716FF294602A802
:10056000FFF774FE102202A94046FFF7EDFE07B028
:10057000BDE8F083D4050010D90500107E070010F7
:1005800073B50C461449FFF7E8FE144B21461D468F
:100590002278E61C1A7011F8010F03F8010F13F806
:1005A000012C824204BF01321A70B142F3D1FFF72D
:1005B0000DFF23782B716378094C2371FFF742FFFD
:1005C0002879A378627821780190E0780090054836
:1005D000FFF7DAFE02B070BD00000010D905001070
:1005E000D4050010DE06001070B505460E46044620
:1005F000631B9E4200DC70BD14F8011B002000F05C
:10060000DDFAF5E72DE9F041262194B04048FFF7E7
:10061000EBFF26213F48FFF7E7FF04AA15463E4BB4
:1006200003F11006144618685968083303C4B3422E
:100630002246F7D108AA1646384B03F11007144694
:1006400018685968083303C4BB422246F7D10CAA84
:100650001746334B03F1100C1446186859680833D9
:1006600003C463452246F7D110AA90462D4B03F1EF
:10067000100C144618685968083303C463452246B1
:10068000F7D141463046FFF77BFF324643463946B5
:100690006846FFF71BFF08212348FFF7A5FF10213D
:1006A0003046FFF723FD08212048FFF79DFF10216A
:1006B0003846FFF71BFD08211D48FFF795FF102165
:1006C0004046FFF713FD08211A48FFF78DFF102160
:1006D0002846FFF70BFD08211748FFF785FF10217B
:1006E0006846FFF703FD26210A48FFF77DFF102229
:1006F0002946684600F08CFB30B912210F48FFF7FD
:1007000073FF14B0BDE8F08110210D48F7E700BF7A
:10071000341600005B160000E0150000F015000024
:100720000016000010160000821600008B16000054
:10073000941600009D160000A6160000AF160000DB
:10074000C2160000F0B5314C93B02068019001A8AA
:1007500000F05EF8002853D00EAA1646231D14346C
:10076000154618685968083303C5A3422A46F7D1CD
:1007700001216846FFF788FC0128054644D19DF811
:100780000040012C1AD004D3022CF1D1FFF73AFF1C
:10079000EEE7102712AC04F8457D01462046FFF72E
:1007A000A5FC294620468DF80370FFF79FFC2946DB
:1007B00020468DF80370FFF799FCD9E710210AA8AD
:1007C000FFF762FC10280146D2D106A8FFF75CFCB7
:1007D00010280546CCD106A93046FFF7D1FE2146A8
:1007E000002000F0A7F906AB32460AA902A8FFF7DD
:1007F0006DFE0021084600F09DF9294602A8DAE7BF
:100800004FF0FF3013B0F0BD0020FBE720160000D2
:100810002DE9F74F012110279D4C066823689D4D57
:10082000D3F880205FFA86F842F48032C3F8802043
:10083000994A884512682E609167D167176140F226
:100840000127C2F8A410C2F8A81017635763D3F8A1
:100850008020AC4642F02002C3F88020D3F88020EC
:10086000009442F04002C3F88020D3F8802042F484
:100870008052C3F880205A6822F002025A605A68F7
:1008800042F002025A6005D026D3B8F1020F05D01B
:100890000020DBE041464FF0030A00E08A464FF0BB
:1008A0000009C6F307220192C6F307460125DDF8C9
:1008B00004E009F1010707FB0EF4B4FBF5FB05FBAF
:1008C0001B420AB95E4509D00135B5F5807FF4D1E8
:1008D000202FB946EAD1DBE70021DCE766009C3E29
:1008E000A42E0FD9A6009C3EA42E40F2B280E600B2
:1008F0009C3EA42E40F2AF8024019C3CA42C00F22C
:10090000C58003220EF1FF34132C49EA421200F293
:10091000A48000241C62D3F83842B8F1000F40F0E4
:10092000A48044F02004C3F83842C82300BF013B30
:10093000FCD1009B1B681964596C41F0010159649A
:10094000596C21F001015964596C41F0010159645D
:10095000596CCC07FCD59A60D3F8382222F080027B
:10096000C3F83822DA68D107FCD5C3F870A05A6FF3
:1009700042F001025A675A6F22F001025A675A6F19
:1009800042F001025A675A6FD207FCD59CF8022048
:100990009D67142A6CD80024404909680C614049BD
:1009A00002EB8202096801F50044256845F0010563
:1009B0002560256845F0020525603A4C246804F559
:1009C0000044256825F00205256043F6FC740D59A6
:1009D00025F001050D510D5925F002050D51052594
:1009E0009CF8011004244F43C3F898702E4B1B68E9
:1009F000D96841F08001D9609D62996A41F0800117
:100A00009962002159601C60D96821F08001D96089
:100A1000D96841F00301D960D96821F00801D96093
:100A2000D96821F00401D960204B1B685A611A6112
:100A300040221A606FF07F421D4B1B685A619A6119
:100A4000C2780AB31D6100F049F9012003B0BDE886
:100A5000F08F012256E7022254E7AEF10F0EBEF1ED
:100A60000A0F3FF658AF022454E724F020045AE757
:100A7000282A03D80949012409688FE7322A8ED829
:100A800006490224096889E71C61DCE71046DDE7B6
:100A90000F0000108E070010130000102F00001030
:100AA0001B00001017000010270000102B00001082
:100AB00033000010054B9B785843032390FBF3F061
:100AC000002801DD0138FDD1704700BF8E070010FE
:100AD0000146002208B58A4200DB08BD4FF47A7057
:100AE000FFF7E8FF0132F6E7024B00211B68986927
:100AF000704700BF3300001001280CD003D3022838
:100B000011D000207047094B1A6843F6FC73D05887
:100B100000F001007047054B1A6843F6FC73D0588B
:100B2000C0F340007047024BF6E700BF1B00001007
:100B300017000010012811D002D3022817D07047E7
:100B40000E4B1A6843F6FC7321B1D15841F00101F4
:100B5000D1507047D15821F00101F9E7074B1A68CD
:100B600043F6FC7329B1D15841F00201F0E7044B80
:100B7000F5E7D15821F00201EAE700BF1B000010A1
:100B800017000010024B1B68586900F00100704705
:100B900027000010024B1B685869C0F340107047D3
:100BA0002700001008B510B9FFF7ECFFFBE7024B78
:100BB0001B681868C0B208BD2700001008B510B93E
:100BC000FFF7E8FFFBE7024B1B68196008BD00BF99
:100BD000270000102DE9F041202541EA400C4FF09C
:100BE0003C0E042738214FF024081820354E346875
:100BF00025603468656805F0F805282D39D014D8CB
:100C0000102D03D007D805B3082DF3D1C4F808C0C0
:100C10002760A061EDE7182D1ED0202DEAD1142306
:100C2000236028230220A36114E0402D2DD006D894
:100C3000302D24D0382DDDD1C4F80080E9E7502DC7
:100C40002AD0582D35D0482DE8E7142323602823D7
:100C50000120A361BDE8F0812BB115780132A560B8
:100C60002760A161C5E7142222602822A26100202A
:100C7000F0E7013BF1D114222260A561F7E71423CC
:100C8000236028230320A361E4E7012B8ABF2760A8
:100C9000C4F818E0A161ACE7A468551C1470326870
:100CA000013B012B8ABF1760C2F818E091612A4608
:100CB0009FE70BB1A3681370142233681A602822CF
:100CC0009A61D4E72B00001013460A460121FFF772
:100CD00081BF13460A460021FFF77CBF62B670470A
:100CE00072B6704740404940FFF72CFD7047000046
:100CF000931E222B16D80A2A10B506D00B460C4696
:100D0000194600F08DFA204610BD0028F6DA0B4691
:100D10002D2403F8014B0C464042194600F080FA9E
:100D2000204610BD00200870704700BFFFF7E0BFED
:100D3000B2B110B50B491046144600F09BF808B943
:100D4000094810BD0849204600F094F80028F7D063
:100D50002046064900F08EF80028F1D0002010BD92
:100D600001487047D8160000D4160000081700008C
:100D7000044B054A1B685B6B002B08BF134693F8B6
:100D800028017047A401001038000010D0F8EC00D2
:100D9000704700BF044B054A1B685B6B002B08BF04
:100DA0001346D3F8EC007047A4010010380000107F
:100DB000024B0A4601461868FFF7BABFA4010010AB
:100DC00030B4064C064D2468646B002C08BF2C46DA
:100DD000D4F8E440A44630BC604700BFA401001032
:100DE0003800001082B049B15AB16BB113780B6072
:100DF0001278101C18BF012002B0704701A9002A08
:100E0000F3D1104602B070476FF00100F4E700BF65
:100E1000032A70B414D940EA0105AD0704460B4615
:100E200022D11D6826681946AE42204603F104030C
:100E300004F1040418D1043A032A20461946F0D8D4
:100E4000541E72B102780B789A4208BF641806D01B
:100E50000CE010F8012F11F8013F9A4206D1A1428F
:100E6000F7D1002070BC7047541EEBE7D01A70BC5D
:100E7000704700BF80EA010C1CF0030F37D110F05F
:100E8000030C20F0030021F0030150F8042B08BFED
:100E900051F8043B0ED08CF0030C6FF07F434FEA07
:100EA000CC0C23FA0CFC51F8043B42EA0C0243EA56
:100EB0000C0300BFA2F1013C9A4201BF2CEA020CD4
:100EC0001CF0803F50F8042B51F8043BF2D04FEA5D
:100ED00002604FEA1222012828BFB0EB036F08BF5F
:100EE0001B0AF4D003F0FF03000EC01A704710F085
:100EF000030F0AD010F8012B11F8013B012A28BF7B
:100F00009A42F4D0A2EB030070474DF8045D50F80C
:100F1000042B01F0030521F0030151F8043B022DDD
:100F200026D04DD822F07F45B5EB132FA2F1013C1E
:100F30002CEA020C0DD11CF0803C08BF51F8043B98
:100F40000AD185EA0205B5EB036F0CD150F8042BEA
:100F5000E8E74FEA13235BE03CF07F4C54D10B7879
:100F60004FEA126554E04FEA126503F0FF034FE0C9
:100F70004FEA0245A2F1013C4FEA15452CEA020C6A
:100F8000B5EB134F18D11CF0803C08BF51F8043B5F
:100F900007D185EA0205B5EB034F09D150F8042BC0
:100FA000E6E75FEA0C4C2FD10B884FEA12452FE0A1
:100FB0004FEA03434FEA12454FEA134328E000BFCC
:100FC00002F0FF05B5EB136FA2F1013C2CEA020C15
:100FD0000DD11CF0803C08BF51F8043B0AD185EAD2
:100FE0000205B5EB032F0AD150F8042BE8E74FEACE
:100FF00013630DE012F0FF0F06D051F8043B4FEAE7
:10100000122523F07F4303E04FF0000020BC70471F
:1010100005F0FF0203F0FF00012828BF904204BF43
:101020002D0A1B0AF4D0A2EB000020BC704700BFC1
:1010300020F0030110F00300C0F1000051F8043B60
:1010400000F1040C4FEACC0C6FF000021CBF22FA36
:101050000CF213434FF0010C4CEA0C2C4CEA0C4CF4
:10106000A3EB0C0222EA030212EACC1204BF51F8ED
:10107000043B0430F4D0C2F1000102EA0102B2FAEA
:1010800082F2C2F11F0200EBD20070472DE9F84F47
:101090000E468046174699460D4600E025462C46EA
:1010A0000A9814F801BBFFF771FE5844417811F01B
:1010B0000801F3D1BBF12D0F57D0BBF12B0F04BFAB
:1010C00095F801B0AC1CB9F1000F04D0B9F1100FC4
:1010D00050D0CC4605E0BBF1300F55D04FF00A0997
:1010E000CC4600290CBF6FF0004E4FF0004E00259B
:1010F000BEFBFCF328460CFB13EA05E029D00125D2
:101100000CFB002014F801BBABF13002092A05D911
:10111000ABF14102192A0BD8ABF1370291450FDD33
:10112000B5F1FF3FEED08342E8D24FF0FF35E9E75B
:10113000ABF16102192A03D8ABF157029145EFDCFC
:101140006B1C0BD001B140420FB14DBB3E60BDE8FE
:10115000F88F9245D3DA4FF0FF35D3E72223C8F852
:101160000030FFB17046661EF0E7AC1C95F801B088
:101170000121A8E7BBF1300FABD1237803F0DF03E7
:10118000582B06D0CC46ACE7237803F0DF03582B6E
:101190000AD14FF0100C94F801B0E1460234A0E7F8
:1011A0008646DFE77046D2E74FF00809CC4698E75D
:1011B00030B5064C064D246883B0646B002C08BF24
:1011C0002C460094FFF762FF03B030BDA40100106D
:1011D0003800001010B5064C82B000932468134606
:1011E0000A4601462046FFF751FF02B010BD00BF7E
:1011F000A4010010084B70B51D68084E6C6B82B0DE
:10120000002C08BF3446134600940A46014628467F
:10121000FFF73CFF02B070BDA401001038000010C1
:10122000F0B48AB06E461746DFF870C004460D462B
:10123000BCE80F000FC6BCE80F000FC69CE8030017
:10124000BB1E46F8040B222B317023D8691E0846BA
:10125000002200E01A46B4FBF7F307FB13440AAE82
:10126000344414F8286C1C4600F8016F531C002C01
:10127000F0D1EC5452B12B44013411F8016F13F842
:10128000017D101B84420F701E70F5DB28460AB0EA
:10129000F0BC704700202870F9E700BFE41600009A
:1012A000FFF7BEBF30B4064C064D2468646B002CBB
:1012B00008BF2C46D4F8E040A44630BC604700BFCD
:1012C000A40100103800001019B1FF2A03D80A70D9
:1012D0000121084670478A234FF0FF310360F8E789
:1012E000637C777BF26B6FC53001672BFED7AB76E3
:1012F000CA82C97DFA5947F0ADD4A2AF9CA472C08E
:10130000B7FD9326363FF7CC34A5E5F171D83115FA
:1013100004C723C31896059A071280E2EB27B2751B
:1013200009832C1A1B6E5AA0523BD6B329E32F8493
:1013300053D100ED20FCB15B6ACBBE394A4C58CF8B
:10134000D0EFAAFB434D338545F9027F503C9FA85F
:1013500051A3408F929D38F5BCB6DA2110FFF3D22D
:10136000CD0C13EC5F974417C4A77E3D645D1973E1
:1013700060814FDC222A908846EEB814DE5E0BDBDB
:10138000E0323A0A4906245CC2D3AC629195E47912
:10139000E7C8376D8DD54EA96C56F4EA657AAE086C
:1013A000BA78252E1CA6B4C6E8DD741F4BBD8B8A07
:1013B000703EB5664803F60E613557B986C11D9E6D
:1013C000E1F8981169D98E949B1E87E9CE5528DFE4
:1013D0008CA1890DBFE6426841992D0FB054BB1610
:1013E00000020406080A0C0E10121416181A1C1E0D
:1013F00020222426282A2C2E30323436383A3C3EFD
:1014000040424446484A4C4E50525456585A5C5EEC
:1014100060626466686A6C6E70727476787A7C7EDC
:1014200080828486888A8C8E90929496989A9C9ECC
:10143000A0A2A4A6A8AAACAEB0B2B4B6B8BABCBEBC
:10144000C0C2C4C6C8CACCCED0D2D4D6D8DADCDEAC
:10145000E0E2E4E6E8EAECEEF0F2F4F6F8FAFCFE9C
:101460001B191F1D131117150B090F0D030107057C
:101470003B393F3D333137352B292F2D232127256C
:101480005B595F5D535157554B494F4D434147455C
:101490007B797F7D737177756B696F6D636167654C
:1014A0009B999F9D939197958B898F8D838187853C
:1014B000BBB9BFBDB3B1B7B5ABA9AFADA3A1A7A52C
:1014C000DBD9DFDDD3D1D7D5CBC9CFCDC3C1C7C51C
:1014D000FBF9FFFDF3F1F7F5EBE9EFEDE3E1E7E50C
:1014E000000306050C0F0A09181B1E1D1417121104
:1014F000303336353C3F3A39282B2E2D24272221F4
:10150000606366656C6F6A69787B7E7D74777271E3
:10151000505356555C5F5A59484B4E4D44474241D3
:10152000C0C3C6C5CCCFCAC9D8DBDEDDD4D7D2D1C3
:10153000F0F3F6F5FCFFFAF9E8EBEEEDE4E7E2E1B3
:10154000A0A3A6A5ACAFAAA9B8BBBEBDB4B7B2B1A3
:10155000909396959C9F9A99888B8E8D8487828193
:101560009B989D9E97949192838085868F8C898A83
:10157000ABA8ADAEA7A4A1A2B3B0B5B6BFBCB9BA73
:10158000FBF8FDFEF7F4F1F2E3E0E5E6EFECE9EA63
:10159000CBC8CDCEC7C4C1C2D3D0D5D6DFDCD9DA53
:1015A0005B585D5E57545152434045464F4C494A43
:1015B0006B686D6E67646162737075767F7C797A33
:1015C0003B383D3E37343132232025262F2C292A23
:1015D0000B080D0E07040102131015161F1C191A13
:1015E000EE73A87302F613FE44AFB83909F659AE8C
:1015F000D3853346028B6E248662E995AB687E25DF
:10160000A7C6DDFCFAFA4BA8F919A1B3B5DA1C2C70
:10161000E6814938661014A134E322437E00893103
:101620000110100054965DAC02FE9BBB8343C9526F
:10163000E31AC4D54145532D313238207769746897
:10164000204D61736B20496D706C656D656E7461C2
:1016500074696F6E20546573740D002D2D2D2D2D22
:101660002D2D2D2D2D2D2D2D2D2D2D2D2D2D2D2DAA
:101670002D2D2D2D2D2D2D2D2D2D2D2D2D2D2D2D9A
:101680000D0074657374206B3A20007465737420C8
:101690006D3A200072616E646F6D3A20007465735C
:1016A0007420633A200063616C6320633A20005227
:1016B0006573756C7420697320636F7272656374EF
:1016C0000D00526573756C742069732077726F6EAC
:1016D000670D000043000000504F534958000000C0
:1016E0002E000000303132333435363738396162FC
:1016F000636465666768696A6B6C6D6E6F70717242
:10170000737475767778797A0000000000202020C5
:1017100020202020202028282828282020202020A1
:101720002020202020202020202020202088101071
:1017300010101010101010101010101010040404CD
:10174000040404040404041010101010101041418B
:101750004141414101010101010101010101010179
:10176000010101010101010110101010101042428D
:101770004242424202020202020202020202020249
:1017800002020202020202021010101020000000E9
:101790000000000000000000000000000000000049
:1017A0000000000000000000000000000000000039
:1017B0000000000000000000000000000000000029
:1017C0000000000000000000000000000000000019
:1017D0000000000000000000000000000000000009
:1017E00000000000000000000000000000000000F9
:1017F00000000000000000000000000000000000E9
:1018000000000000000000000000000000000000D8
:04181000A80100101B
:0C181400000000000000000000000000C8
:101820000001020408102040801B36000C0C01004F
:1018300080044000400440000000500000015000BF
:1018400000025000000350008000400000004000F3
:10185000C0034000E000E000430000000000000082
:101860000000000000000000000000000000000078
:101870000000000000000000430000000000000025
:101880000000000000000000000000000000000058
:101890000000000000000000430000000000000005
:1018A0000000000000000000000000000000000038
:1018B00000000000000000004300000000000000E5
:1018C0000000000000000000000000000000000018
:1018D00000000000000000004300000000000000C5
:1018E00000000000000000000000000000000000F8
:1018F00000000000000000004300000000000000A5
:1019000000000000000000000000000000000000D7
:101910000000000000000000430000000000000084
:1019200000000000000000000000000000000000B7
:101930000000000000000000C9120000E50D0000DA
:10194000000000000C170000E0160000081700005F
:10195000081700000817000008170000081700000B
:1019600008170000081700000817000008170000FB
:10197000FFFFFFFFFFFFFFFFFFFFFFFFFFFF000075
:1019800001004153434949000000000000000000ED
:101990000000000000000000000000000000000047
:1019A00000004153434949000000000000000000CE
:1019B0000000000000000000000000000000000027
:1019C00000000000A80100100000000094040010B6
:1019D000FC0400106405001000000000000000007E
:1019E00000000000000000000000000000000000F7
:1019F00000000000000000000000000000000000E7
:101A000000000000000000000000000000000000D6
:101A100000000000000000000000000000000000C6
:101A200000000000000000000000000000000000B6
:101A300000000000000000000000000000000000A6
:101A40000000000000000000000000000000000096
:101A50000000000000000000000000000000000086
:101A60000000000000000000000000000000000076
:101A700001000000000000000E33CDAB34126DE613
:101A8000ECDE05000B00000000000000000000007C
:101A90000000000000000000000000000000000046
:101AA0000000000000000000000000000000000036
:101AB0000000000000000000000000000000000026
:101AC0000000000000000000000000000000000016
:00000001FF
