:1000000000200010430000004100000041000000FB
:1000100041000000410000004100000041000000DC
:1000200041000000410000004100000041000000CC
:1000300041000000410000004100000041000000BC
:10004000FEE70B480B490C4A091A05D013780370D8
:10005000013201300139F9DC08480949091A04D094
:100060005B40037001300139FBDC00F017FEFEE756
:1000700000000010D0060010F0160000D00600109E
:10008000D4060010C01D00002DE9F34180460D4646
:10009000002421EAE1767600002000F05FFD3A2896
:1000A000FAD14746A7EB08039D420DDC002000F083
:1000B00055FD34440A2804F1010401D0A542EBDACD
:1000C000284602B0BDE8F081002000F047FD8DF821
:1000D0000400002000F042FD10228DF805000021F0
:1000E00001A801F063F807F8010BDBE7F7B50E464E
:1000F000102201A90746304600F0F4FD01A800F0E7
:1001000073FF012820D13021002000F033FD9DF83D
:10011000044000F01BFE20444378002003F003035A
:10012000022B08BF203CE1B200F024FD3A21002060
:1001300000F020FD3D46EB1BB34217DB0D210020F4
:1001400000F018FD03B0F0BD9DF8044000F0FEFD86
:1001500020444378002003F00303022B08BF203C17
:10016000E1B200F007FD9DF80540D2E7102201A999
:1001700015F8010B00F0B6FD01A800F035FF0128CD
:1001800013D13021002000F0F5FC9DF8044000F070
:10019000DDFD20444378002003F00303022B08BF59
:1001A000203CE1B200F0E6FCC5E79DF8044000F019
:1001B000CDFD20444378002003F00303022B08BF49
:1001C000203CE1B200F0D6FC9DF80540DFE730B5F9
:1001D0008D18EB78AC7844EA03246B7843EA042466
:1001E0008B5C43EA0423036030BD81540B0A024454
:1001F00053700B0C090E9370D170704700212DE9DC
:10020000F04F2048DFF890E0DFF890C01E4F1F4EFF
:100210001F4D204C11F80E30C25C00EB030898F81B
:1002200000A143EA022843EA08284FEA03294AEAE0
:1002300008284CF8218083EA09084FEA08288AEA4E
:10024000080B8AEA090942EA0B2B42EA092942EA29
:100250000A2243EA022283EA080843EA092943EA18
:10026000022243EA082347F821B046F8219045F8D6
:10027000212044F821300131B1F5807FCAD1BDE899
:10028000F08F00BF98120000940D00109411001020
:10029000941900109409001000000010941500102B
:1002A0002DE9F04F8BB00022054606A8FFF78FFF1F
:1002B000042207A8FFF78BFF904C082208A8FFF73D
:1002C00086FF0C2209A8FFF782FF069B226861685F
:1002D0005A40079BA0684B400899E7684840099935
:1002E000DFF82482DFF824E2DFF824C2844E4F4096
:1002F00004F1B00B04F1200101945FFA82F951F886
:10030000104C4FEA176A58F829905EF82AA089EA3B
:10031000040989EA0A09C3F3072A5CF82AA0103104
:1003200089EA0A04C0F30749029456F829405FFAA3
:1003300083F903944FEA126A51F81C4C58F829903B
:100340005EF82AA089EA040989EA0A09C0F3072AA3
:100350005CF82AA089EA0A04C7F30749049456F80E
:1003600029405FFA80F905944FEA136A51F8184C56
:1003700058F829905EF82AA089EA040989EA0A094E
:10038000C7F3072AFFB251F8144C5CF82AA058F8BA
:100390002770000E5EF8200089EA0A096740C2F360
:1003A000074AC2F307224740C3F307435CF8220021
:1003B00056F8233056F82AA047408B4587EA0307B2
:1003C000DDE9023283EA0202DDE9043083EA000358
:1003D00089EA0A0091D14B4ED1B216F821C0390EEC
:1003E00056F82110C0F3074E01F07F414CEA010C92
:1003F000C3F3072156F8211056F82EE0019C0EF4A5
:100400007F0ED4F8A04001F47F4141EA0E01614023
:1004100081EA0C015FFA83FC16F82CE04FEA126CBB
:1004200056F82CC0C7F307480CF07F4C4EEA0C0E70
:10043000C0F3072C56F82CC056F82880019C08F40D
:100440007F08D4F8A4400CF47F4C4CEA080C8CEAEA
:10045000040C8CEA0E0C5FFA80FE16F82E804FEA30
:10046000136E56F82EE0C2F30749C3F30743C2F3F5
:10047000072256F8222056F823300EF07F4E48EA25
:100480000E0802F47F42C7F3072E03F47F0356F8E9
:100490002EE056F82990019C1343000E019A56F85D
:1004A0002000FFB2D4F8A84016F82770D2F8AC208C
:1004B00009F47F090EF47F4E4EEA090E00F07F40EA
:1004C00038438EEA040E534043408EEA080E284615
:1004D0000022CDE9061CCDE908E3FFF786FE079967
:1004E0000422FFF782FE08990822FFF77EFE0C2205
:1004F0000999FFF77AFE0BB0BDE8F08FD406001023
:100500009411001094090010941500109419001013
:10051000940D0010F8B5014600221D48FFF757FE64
:1005200004221C48FFF753FE08221B48FFF74FFE2A
:100530000C221A48FFF74BFE0422194C194D1A4E93
:100540009107236954F8047F1BD1190E55F8210037
:10055000D9B255F8211000F47F0001F07F41084323
:10056000C3F30721C3F3074355F8233015F82110CF
:1005700003F47F430B4306EBA20191F800114B40BB
:10058000434001327B402C2A2361D9D1F8BD00BF02
:10059000D4060010D8060010DC060010E00600109B
:1005A000D0060010940900100000001070B5054638
:1005B0000E460446631B9E4200DC70BD14F8011B0E
:1005C000002000F0D7FAF5E72DE9F041382194B08A
:1005D0003C48FFF7EBFF04AA15463B4B03F110061E
:1005E000144618685968083303C4B3422246F7D149
:1005F00008AA1646354B03F11007144618685968C7
:10060000083303C4BB422246F7D10CAA1746304B2D
:1006100003F1100C144618685968083303C4634585
:100620002246F7D110AA90462A4B03F1100C14462B
:1006300018685968083303C463452246F7D1414618
:100640003046FFF767FF3246434639466846FFF7B4
:1006500027FE08212048FFF7A9FF10213046FFF7A9
:1006600045FD08211D48FFF7A1FF10213846FFF77F
:100670003DFD08211A48FFF799FF00214046FFF78A
:1006800035FD08211748FFF791FF10212846FFF795
:100690002DFD08211448FFF789FF10216846FFF758
:1006A00025FD10222946684600F08EFB30B92A212C
:1006B0000E48FFF77BFF14B0BDE8F08128210C48FD
:1006C000F7E700BFEC14000098140000A814000025
:1006D000B8140000C8140000251500002E150000F5
:1006E00037150000401500004915000052150000A4
:1006F0007D150000F0B5334C91B02068039003A83D
:1007000000F062F8002857D00CAA1646231D1434B6
:10071000154618685968083303C5A3422A46F7D11D
:10072000FFF76CFD012101A8FFF7AEFC012805468B
:1007300046D19DF80470012F1BD004D3022FF1D1B4
:10074000FFF742FFEEE7102710AC04F8357D0146B5
:100750002046FFF7CBFC294620468DF80B70FFF7AB
:10076000C5FC0023294620468DF80B30FFF7BEFC60
:10077000D8E7102108A8FFF787FC10280546D1D13B
:10078000002102A8FFF780FC04460028CAD102A974
:100790003046FFF7BFFE3946204600F0A7F902AB0E
:1007A000324608A904A8FFF77BFD2146204600F049
:1007B0009DF9294604A8D9E74FF0FF3011B0F0BDEC
:1007C0000020FBE7D81400002DE9F74F0121102786
:1007D0009D4C066823689D4DD3F880205FFA86F80B
:1007E00042F48032C3F88020994A884512682E600E
:1007F0009167D167176140F20127C2F8A410C2F8CF
:10080000A81017635763D3F88020AC4642F020024B
:10081000C3F88020D3F88020009442F04002C3F84F
:100820008020D3F8802042F48052C3F880205A6898
:1008300022F002025A605A6842F002025A6005D061
:1008400026D3B8F1020F05D00020DBE041464FF07F
:10085000030A00E08A464FF00009C6F3072201921E
:10086000C6F307460125DDF804E009F1010707FB9F
:100870000EF4B4FBF5FB05FB1B420AB95E4509D03B
:100880000135B5F5807FF4D1202FB946EAD1DBE7F9
:100890000021DCE766009C3EA42E0FD9A6009C3EFA
:1008A000A42E40F2B280E6009C3EA42E40F2AF801F
:1008B00024019C3CA42C00F2C58003220EF1FF34DD
:1008C000132C49EA421200F2A48000241C62D3F8DF
:1008D0003842B8F1000F40F0A48044F02004C3F87F
:1008E0003842C82300BF013BFCD1009B1B68196440
:1008F000596C41F001015964596C21F001015964AE
:10090000596C41F001015964596CCC07FCD59A60CF
:10091000D3F8382222F08002C3F83822DA68D107EF
:10092000FCD5C3F870A05A6F42F001025A675A6FA3
:1009300022F001025A675A6F42F001025A675A6F59
:10094000D207FCD59CF802209D67142A6CD800249D
:10095000404909680C61404902EB8202096801F5CF
:100960000044256845F001052560256845F002052D
:1009700025603A4C246804F50044256825F00205FA
:10098000256043F6FC740D5925F001050D510D59F4
:1009900025F002050D5105259CF8011004244F4354
:1009A000C3F898702E4B1B68D96841F08001D9605C
:1009B0009D62996A41F080019962002159601C6032
:1009C000D96821F08001D960D96841F00301D9606C
:1009D000D96821F00801D960D96821F00401D960F3
:1009E000204B1B685A611A6140221A606FF07F42E7
:1009F0001D4B1B685A619A61C2780AB31D6100F0F1
:100A000049F9012003B0BDE8F08F012256E7022228
:100A100054E7AEF10F0EBEF10A0F3FF658AF0224B5
:100A200054E724F020045AE7282A03D8094901246E
:100A300009688FE7322A8ED806490224096889E7B7
:100A40001C61DCE71046DDE70F010010941D00106B
:100A5000130100102F0100101B01001017010010DE
:100A6000270100102B01001033010010054B9B786B
:100A70005843032390FBF3F0002801DD0138FDD13A
:100A8000704700BF941D00100146002208B58A423D
:100A900000DB08BD4FF47A70FFF7E8FF0132F6E79C
:100AA000024B00211B689869704700BF330100109A
:100AB00001280CD003D3022811D000207047094B25
:100AC0001A6843F6FC73D05800F001007047054BDC
:100AD0001A6843F6FC73D058C0F340007047024BCD
:100AE000F6E700BF1B01001017010010012811D00C
:100AF00002D3022817D070470E4B1A6843F6FC73D6
:100B000021B1D15841F00101D1507047D15821F0A5
:100B10000101F9E7074B1A6843F6FC7329B1D15874
:100B200041F00201F0E7044BF5E7D15821F0020152
:100B3000EAE700BF1B01001017010010024B1B6801
:100B4000586900F00100704727010010024B1B6834
:100B50005869C0F3401070472701001008B510B95C
:100B6000FFF7ECFFFBE7024B1B681868C0B208BD3B
:100B70002701001008B510B9FFF7E8FFFBE7024BAB
:100B80001B68196008BD00BF270100102DE9F04166
:100B9000202541EA400C4FF03C0E042738214FF04D
:100BA00024081820354E346825603468656805F0DF
:100BB000F805282D39D014D8102D03D007D805B347
:100BC000082DF3D1C4F808C02760A061EDE7182D07
:100BD0001ED0202DEAD11423236028230220A361F4
:100BE00014E0402D2DD006D8302D24D0382DDDD165
:100BF000C4F80080E9E7502D2AD0582D35D0482D73
:100C0000E8E71423236028230120A361BDE8F081D5
:100C10002BB115780132A5602760A161C5E71422C8
:100C200022602822A2610020F0E7013BF1D11422CA
:100C30002260A561F7E71423236028230320A36122
:100C4000E4E7012B8ABF2760C4F818E0A161ACE794
:100C5000A468551C14703268013B012B8ABF1760D1
:100C6000C2F818E091612A469FE70BB1A3681370A0
:100C7000142233681A6028229A61D4E72B010010ED
:100C800013460A460121FFF781BF13460A46002199
:100C9000FFF77CBF62B6704772B67047404049406C
:100CA000FFF728FD70470000931E222B16D80A2A52
:100CB00010B506D00B460C46194600F08DFA2046BA
:100CC00010BD0028F6DA0B462D2403F8014B0C4624
:100CD0004042194600F080FA204610BD00200870FE
:100CE000704700BFFFF7E0BFB2B110B50B49104627
:100CF000144600F09BF808B9094810BD0849204681
:100D000000F094F80028F7D02046064900F08EF84D
:100D10000028F1D0002010BD01487047AC1500003C
:100D2000A8150000DC150000044B054A1B685B6B2E
:100D3000002B08BF134693F828017047A402001047
:100D400038010010D0F8EC00704700BF044B054A92
:100D50001B685B6B002B08BF1346D3F8EC00704791
:100D6000A402001038010010024B0A460146186820
:100D7000FFF7BABFA402001030B4064C064D246839
:100D8000646B002C08BF2C46D4F8E440A44630BC69
:100D9000604700BFA40200103801001082B049B1C2
:100DA0005AB16BB113780B601278101C18BF012078
:100DB00002B0704701A9002AF3D1104602B0704773
:100DC0006FF00100F4E700BF032A70B414D940EAC1
:100DD0000105AD0704460B4622D11D682668194659
:100DE000AE42204603F1040304F1040418D1043A8E
:100DF000032A20461946F0D8541E72B102780B78A7
:100E00009A4208BF641806D00CE010F8012F11F8C0
:100E1000013F9A4206D1A142F7D1002070BC704731
:100E2000541EEBE7D01A70BC704700BF80EA010C7B
:100E30001CF0030F37D110F0030C20F0030021F059
:100E4000030150F8042B08BF51F8043B0ED08CF07E
:100E5000030C6FF07F434FEACC0C23FA0CFC51F8E3
:100E6000043B42EA0C0243EA0C0300BFA2F1013C3E
:100E70009A4201BF2CEA020C1CF0803F50F8042B70
:100E800051F8043BF2D04FEA02604FEA12220128E7
:100E900028BFB0EB036F08BF1B0AF4D003F0FF03B9
:100EA000000EC01A704710F0030F0AD010F8012B83
:100EB00011F8013B012A28BF9A42F4D0A2EB0300AB
:100EC00070474DF8045D50F8042B01F0030521F044
:100ED000030151F8043B022D26D04DD822F07F4566
:100EE000B5EB132FA2F1013C2CEA020C0DD11CF042
:100EF000803C08BF51F8043B0AD185EA0205B5EBF6
:100F0000036F0CD150F8042BE8E74FEA13235BE0A2
:100F10003CF07F4C54D10B784FEA126554E04FEA15
:100F2000126503F0FF034FE04FEA0245A2F1013CD6
:100F30004FEA15452CEA020CB5EB134F18D11CF003
:100F4000803C08BF51F8043B07D185EA0205B5EBA8
:100F5000034F09D150F8042BE6E75FEA0C4C2FD180
:100F60000B884FEA12452FE04FEA03434FEA124540
:100F70004FEA134328E000BF02F0FF05B5EB136F03
:100F8000A2F1013C2CEA020C0DD11CF0803C08BF00
:100F900051F8043B0AD185EA0205B5EB032F0AD1CB
:100FA00050F8042BE8E74FEA13630DE012F0FF0F4F
:100FB00006D051F8043B4FEA122523F07F4303E0AB
:100FC0004FF0000020BC704705F0FF0203F0FF0067
:100FD000012828BF904204BF2D0A1B0AF4D0A2EBBF
:100FE000000020BC704700BF20F0030110F0030098
:100FF000C0F1000051F8043B00F1040C4FEACC0CA6
:101000006FF000021CBF22FA0CF213434FF0010CE8
:101010004CEA0C2C4CEA0C4CA3EB0C0222EA030227
:1010200012EACC1204BF51F8043B0430F4D0C2F1F0
:10103000000102EA0102B2FA82F2C2F11F0200EBE1
:10104000D20070472DE9F84F0E4680461746994664
:101050000D4600E025462C460A9814F801BBFFF720
:1010600071FE5844417811F00801F3D1BBF12D0F06
:1010700057D0BBF12B0F04BF95F801B0AC1CB9F1F0
:10108000000F04D0B9F1100F50D0CC4605E0BBF1F1
:10109000300F55D04FF00A09CC4600290CBF6FF035
:1010A000004E4FF0004E0025BEFBFCF328460CFB23
:1010B00013EA05E029D001250CFB002014F801BB40
:1010C000ABF13002092A05D9ABF14102192A0BD83C
:1010D000ABF1370291450FDDB5F1FF3FEED0834212
:1010E000E8D24FF0FF35E9E7ABF16102192A03D8E6
:1010F000ABF157029145EFDC6B1C0BD001B14042C4
:101100000FB14DBB3E60BDE8F88F9245D3DA4FF08A
:10111000FF35D3E72223C8F80030FFB17046661EC2
:10112000F0E7AC1C95F801B00121A8E7BBF1300F46
:10113000ABD1237803F0DF03582B06D0CC46ACE7C5
:10114000237803F0DF03582B0AD14FF0100C94F8EA
:1011500001B0E1460234A0E78646DFE77046D2E7F9
:101160004FF00809CC4698E730B5064C064D246888
:1011700083B0646B002C08BF2C460094FFF762FF1D
:1011800003B030BDA40200103801001010B5064CA9
:1011900082B00093246813460A4601462046FFF7B2
:1011A00051FF02B010BD00BFA4020010084B70B583
:1011B0001D68084E6C6B82B0002C08BF3446134685
:1011C00000940A4601462846FFF73CFF02B070BD76
:1011D000A402001038010010F0B48AB06E46174621
:1011E000DFF870C004460D46BCE80F000FC6BCE82F
:1011F0000F000FC69CE80300BB1E46F8040B222B11
:10120000317023D8691E0846002200E01A46B4FB5C
:10121000F7F307FB13440AAE344414F8286C1C4659
:1012200000F8016F531C002CF0D1EC5452B12B4448
:10123000013411F8016F13F8017D101B84420F7007
:101240001E70F5DB28460AB0F0BC704700202870FD
:10125000F9E700BFB8150000FFF7BEBF30B4064C79
:10126000064D2468646B002C08BF2C46D4F8E0407F
:10127000A44630BC604700BFA40200103801001033
:1012800019B1FF2A03D80A700121084670478A2342
:101290004FF0FF310360F8E7000306050C0F0A0961
:1012A000181B1E1D14171211303336353C3F3A39C6
:1012B000282B2E2D24272221606366656C6F6A69B6
:1012C000787B7E7D74777271505356555C5F5A59A6
:1012D000484B4E4D44474241C0C3C6C5CCCFCAC996
:1012E000D8DBDEDDD4D7D2D1F0F3F6F5FCFFFAF986
:1012F000E8EBEEEDE4E7E2E1A0A3A6A5ACAFAAA976
:10130000B8BBBEBDB4B7B2B1909396959C9F9A9965
:10131000888B8E8D848782819B989D9E97949192D5
:10132000838085868F8C898AABA8ADAEA7A4A1A245
:10133000B3B0B5B6BFBCB9BAFBF8FDFEF7F4F1F235
:10134000E3E0E5E6EFECE9EACBC8CDCEC7C4C1C225
:10135000D3D0D5D6DFDCD9DA5B585D5E5754515215
:10136000434045464F4C494A6B686D6E6764616205
:10137000737075767F7C797A3B383D3E37343132F5
:10138000232025262F2C292A0B080D0E07040102E5
:10139000131015161F1C191A00020406080A0C0E59
:1013A00010121416181A1C1E20222426282A2C2E4D
:1013B00030323436383A3C3E40424446484A4C4E3D
:1013C00050525456585A5C5E60626466686A6C6E2D
:1013D00070727476787A7C7E80828486888A8C8E1D
:1013E00090929496989A9C9EA0A2A4A6A8AAACAE0D
:1013F000B0B2B4B6B8BABCBEC0C2C4C6C8CACCCEFD
:10140000D0D2D4D6D8DADCDEE0E2E4E6E8EAECEEEC
:10141000F0F2F4F6F8FAFCFE1B191F1D1311171554
:101420000B090F0D030107053B393F3D33313735BC
:101430002B292F2D232127255B595F5D53515755AC
:101440004B494F4D434147457B797F7D737177759C
:101450006B696F6D636167659B999F9D939197958C
:101460008B898F8D83818785BBB9BFBDB3B1B7B57C
:10147000ABA9AFADA3A1A7A5DBD9DFDDD3D1D7D56C
:10148000CBC9CFCDC3C1C7C5FBF9FFFDF3F1F7F55C
:10149000EBE9EFEDE3E1E7E5EE73A87302F613FE87
:1014A00044AFB83909F659AED3853346028B6E2462
:1014B0008662E995AB687E25A7C6DDFCFAFA4BA8E3
:1014C000F919A1B3B5DA1C2CE6814938661014A1CC
:1014D00034E322437E0089310110100054965DAC44
:1014E00002FE9BBB8343C952E31AC4D54145532036
:1014F000542D7461626C6520496D706C656D656E0C
:10150000746174696F6E20546573740D2D2D2D2DCB
:101510002D2D2D2D2D2D2D2D2D2D2D2D2D2D2D2DFB
:101520002D2D2D0D0074657374206B3A20007465A9
:101530007374206D3A200072616E646F6D3A200002
:101540007465737420633A200063616C6320633AAE
:1015500020002D2D2D2D2D2D2D2D2D2D2D2D2D2DF5
:101560002D2D2D2D2D2D2D2D2D0D526573756C745A
:1015700020697320636F72726563740D002D2D2DC9
:101580002D2D2D2D2D2D2D2D2D2D2D2D2D2D2D2D8B
:101590002D2D2D2D0D526573756C74206973207778
:1015A000726F6E670D00000043000000504F5349FA
:1015B000580000002E000000303132333435363709
:1015C00038396162636465666768696A6B6C6D6E01
:1015D0006F707172737475767778797A0000000095
:1015E00000202020202020202020282828282820F3
:1015F00020202020202020202020202020202020EB
:101600002088101010101010101010101010101052
:101610001004040404040404040404101010101042
:10162000101041414141414101010101010101010C
:10163000010101010101010101010101101010105E
:1016400010104242424242420202020202020202DE
:101650000202020202020202020202021010101032
:10166000200000000000000000000000000000005A
:10167000000000000000000000000000000000006A
:10168000000000000000000000000000000000005A
:10169000000000000000000000000000000000004A
:1016A000000000000000000000000000000000003A
:1016B000000000000000000000000000000000002A
:1016C000000000000000000000000000000000001A
:1016D000000000000000000000000000000000000A
:0816E00000000000A802001048
:0816E8000000000000000000FA
:1016F000637C777BF26B6FC53001672BFED7AB76CF
:10170000CA82C97DFA5947F0ADD4A2AF9CA472C079
:10171000B7FD9326363FF7CC34A5E5F171D83115E6
:1017200004C723C31896059A071280E2EB27B27507
:1017300009832C1A1B6E5AA0523BD6B329E32F847F
:1017400053D100ED20FCB15B6ACBBE394A4C58CF77
:10175000D0EFAAFB434D338545F9027F503C9FA84B
:1017600051A3408F929D38F5BCB6DA2110FFF3D219
:10177000CD0C13EC5F974417C4A77E3D645D1973CD
:1017800060814FDC222A908846EEB814DE5E0BDBC7
:10179000E0323A0A4906245CC2D3AC629195E479FE
:1017A000E7C8376D8DD54EA96C56F4EA657AAE0858
:1017B000BA78252E1CA6B4C6E8DD741F4BBD8B8AF3
:1017C000703EB5664803F60E613557B986C11D9E59
:1017D000E1F8981169D98E949B1E87E9CE5528DFD0
:1017E0008CA1890DBFE6426841992D0FB054BB16FC
:1017F0000001020408102040801B36000C0C010080
:1018000080044000400440000000500000015000EF
:101810000002500000035000800040000000400023
:10182000C0034000E000E0004300000000000000B2
:1018300000000000000000000000000000000000A8
:101840000000000000000000430000000000000055
:101850000000000000000000000000000000000088
:101860000000000000000000430000000000000035
:101870000000000000000000000000000000000068
:101880000000000000000000430000000000000015
:101890000000000000000000000000000000000048
:1018A00000000000000000004300000000000000F5
:1018B0000000000000000000000000000000000028
:1018C00000000000000000004300000000000000D5
:1018D0000000000000000000000000000000000008
:1018E00000000000000000004300000000000000B5
:1018F00000000000000000000000000000000000E8
:101900000000000000000000811200009D0D00009A
:1019100000000000E0150000B4150000DC15000018
:10192000DC150000DC150000DC150000DC150000F3
:10193000DC150000DC150000DC150000DC150000E3
:10194000FFFFFFFFFFFFFFFFFFFFFFFFFFFF0000A5
:10195000010041534349490000000000000000001D
:101960000000000000000000000000000000000077
:1019700000004153434949000000000000000000FE
:101980000000000000000000000000000000000057
:1019900000000000A80200100000000094050010E4
:1019A000FC050010640600100000000000000000AC
:1019B0000000000000000000000000000000000027
:1019C0000000000000000000000000000000000017
:1019D0000000000000000000000000000000000007
:1019E00000000000000000000000000000000000F7
:1019F00000000000000000000000000000000000E7
:101A000000000000000000000000000000000000D6
:101A100000000000000000000000000000000000C6
:101A200000000000000000000000000000000000B6
:101A300000000000000000000000000000000000A6
:101A400001000000000000000E33CDAB34126DE643
:101A5000ECDE05000B0000000000000000000000AC
:101A60000000000000000000000000000000000076
:101A70000000000000000000000000000000000066
:101A80000000000000000000000000000000000056
:101A90000000000000000000000000000000000046
:00000001FF
